{
  "contractName": "Factory",
  "abi": [
    {
      "inputs": [],
      "stateMutability": "nonpayable",
      "type": "constructor"
    },
    {
      "anonymous": false,
      "inputs": [
        {
          "indexed": true,
          "internalType": "address",
          "name": "owner",
          "type": "address"
        },
        {
          "indexed": true,
          "internalType": "address",
          "name": "group",
          "type": "address"
        },
        {
          "indexed": false,
          "internalType": "string",
          "name": "title",
          "type": "string"
        }
      ],
      "name": "ContractDeployed",
      "type": "event"
    },
    {
      "inputs": [],
      "name": "implementation",
      "outputs": [
        {
          "internalType": "address",
          "name": "",
          "type": "address"
        }
      ],
      "stateMutability": "view",
      "type": "function",
      "constant": true
    },
    {
      "inputs": [
        {
          "internalType": "string",
          "name": "title",
          "type": "string"
        },
        {
          "components": [
            {
              "internalType": "address",
              "name": "account",
              "type": "address"
            },
            {
              "internalType": "uint32",
              "name": "value",
              "type": "uint32"
            },
            {
              "internalType": "uint32",
              "name": "total",
              "type": "uint32"
            }
          ],
          "internalType": "struct Stream.Member[]",
          "name": "members",
          "type": "tuple[]"
        }
      ],
      "name": "genesis",
      "outputs": [
        {
          "internalType": "address",
          "name": "",
          "type": "address"
        }
      ],
      "stateMutability": "nonpayable",
      "type": "function"
    }
  ],
  "bytecode": "0x60a060405234801561001057600080fd5b5060405161001d90610072565b604051809103906000f080158015610039573d6000803e3d6000fd5b5073ffffffffffffffffffffffffffffffffffffffff1660808173ffffffffffffffffffffffffffffffffffffffff168152505061007f565b610c64806107d683390190565b6080516107366100a0600039600081816091015261019f01526107366000f3fe608060405234801561001057600080fd5b50600436106100365760003560e01c8063522d300b1461003b5780635c60da1b1461006b575b600080fd5b6100556004803603810190610050919061035b565b610089565b604051610062919061041d565b60405180910390f35b61007361019d565b604051610080919061041d565b60405180910390f35b6000806100b57f00000000000000000000000000000000000000000000000000000000000000006101c1565b905060008190508073ffffffffffffffffffffffffffffffffffffffff1663804e1c0886866040518363ffffffff1660e01b81526004016100f79291906105ee565b600060405180830381600087803b15801561011157600080fd5b505af1158015610125573d6000803e3d6000fd5b505050508173ffffffffffffffffffffffffffffffffffffffff163373ffffffffffffffffffffffffffffffffffffffff167fe384b845ebbdba966087d610bc474cdd194ce36c9eab7f4ee94dc862f55084238989604051610188929190610670565b60405180910390a38192505050949350505050565b7f000000000000000000000000000000000000000000000000000000000000000081565b60006040517f3d602d80600a3d3981f3363d3d373d3d3d363d7300000000000000000000000081528260601b60148201527f5af43d82803e903d91602b57fd5bf3000000000000000000000000000000000060288201526037816000f0915050600073ffffffffffffffffffffffffffffffffffffffff168173ffffffffffffffffffffffffffffffffffffffff161415610291576040517f08c379a0000000000000000000000000000000000000000000000000000000008152600401610288906106e0565b60405180910390fd5b919050565b600080fd5b600080fd5b600080fd5b600080fd5b600080fd5b60008083601f8401126102c5576102c46102a0565b5b8235905067ffffffffffffffff8111156102e2576102e16102a5565b5b6020830191508360018202830111156102fe576102fd6102aa565b5b9250929050565b60008083601f84011261031b5761031a6102a0565b5b8235905067ffffffffffffffff811115610338576103376102a5565b5b602083019150836060820283011115610354576103536102aa565b5b9250929050565b6000806000806040858703121561037557610374610296565b5b600085013567ffffffffffffffff8111156103935761039261029b565b5b61039f878288016102af565b9450945050602085013567ffffffffffffffff8111156103c2576103c161029b565b5b6103ce87828801610305565b925092505092959194509250565b600073ffffffffffffffffffffffffffffffffffffffff82169050919050565b6000610407826103dc565b9050919050565b610417816103fc565b82525050565b6000602082019050610432600083018461040e565b92915050565b600082825260208201905092915050565b6000819050919050565b61045c816103fc565b811461046757600080fd5b50565b60008135905061047981610453565b92915050565b600061048e602084018461046a565b905092915050565b61049f816103fc565b82525050565b600063ffffffff82169050919050565b6104be816104a5565b81146104c957600080fd5b50565b6000813590506104db816104b5565b92915050565b60006104f060208401846104cc565b905092915050565b610501816104a5565b82525050565b60608201610518600083018361047f565b6105256000850182610496565b5061053360208301836104e1565b61054060208501826104f8565b5061054e60408301836104e1565b61055b60408501826104f8565b50505050565b600061056d8383610507565b60608301905092915050565b600082905092915050565b6000606082019050919050565b600061059d8385610438565b93506105a882610449565b8060005b858110156105e1576105be8284610579565b6105c88882610561565b97506105d383610584565b9250506001810190506105ac565b5085925050509392505050565b60006020820190508181036000830152610609818486610591565b90509392505050565b600082825260208201905092915050565b82818337600083830152505050565b6000601f19601f8301169050919050565b600061064f8385610612565b935061065c838584610623565b61066583610632565b840190509392505050565b6000602082019050818103600083015261068b818486610643565b90509392505050565b7f455243313136373a20637265617465206661696c656400000000000000000000600082015250565b60006106ca601683610612565b91506106d582610694565b602082019050919050565b600060208201905081810360008301526106f9816106bd565b905091905056fea2646970667358221220e0a3ca59a7417d98d5034da166649f211bbad90913d212e75548cfbd68a141f564736f6c634300080b0033608060405234801561001057600080fd5b50610c44806100206000396000f3fe60806040526004361061002d5760003560e01c8063804e1c08146101ad578063bdd4d18d146101d6576101a8565b366101a85760006001805490501161007a576040517f08c379a00000000000000000000000000000000000000000000000000000000081526004016100719061052f565b60405180910390fd5b60005b6001805490508110156101a5576000600182815481106100a05761009f61054f565b5b906000526020600020016040518060600160405290816000820160009054906101000a900473ffffffffffffffffffffffffffffffffffffffff1673ffffffffffffffffffffffffffffffffffffffff1673ffffffffffffffffffffffffffffffffffffffff1681526020016000820160149054906101000a900463ffffffff1663ffffffff1663ffffffff1681526020016000820160189054906101000a900463ffffffff1663ffffffff1663ffffffff168152505090506101918160000151826040015163ffffffff16836020015163ffffffff163461018291906105b7565b61018c9190610640565b610201565b50808061019d90610671565b91505061007d565b50005b600080fd5b3480156101b957600080fd5b506101d460048036038101906101cf9190610729565b61024b565b005b3480156101e257600080fd5b506101eb6103a1565b6040516101f891906108c7565b60405180910390f35b600080600080600085875af1905080610246576040517f90b8ec1800000000000000000000000000000000000000000000000000000000815260040160405180910390fd5b505050565b600060019054906101000a900460ff166102735760008054906101000a900460ff161561027c565b61027b61049e565b5b6102bb576040517f08c379a00000000000000000000000000000000000000000000000000000000081526004016102b29061095b565b60405180910390fd5b60008060019054906101000a900460ff16159050801561030b576001600060016101000a81548160ff02191690831515021790555060016000806101000a81548160ff0219169083151502179055505b60005b8383905081101561037a57600184848381811061032e5761032d61054f565b5b9050606002019080600181540180825580915050600190039060005260206000200160009091909190915081816103659190610c00565b5050808061037290610671565b91505061030e565b50801561039c5760008060016101000a81548160ff0219169083151502179055505b505050565b60606001805480602002602001604051908101604052809291908181526020016000905b82821015610495578382906000526020600020016040518060600160405290816000820160009054906101000a900473ffffffffffffffffffffffffffffffffffffffff1673ffffffffffffffffffffffffffffffffffffffff1673ffffffffffffffffffffffffffffffffffffffff1681526020016000820160149054906101000a900463ffffffff1663ffffffff1663ffffffff1681526020016000820160189054906101000a900463ffffffff1663ffffffff1663ffffffff1681525050815260200190600101906103c5565b50505050905090565b60006104a9306104af565b15905090565b6000808273ffffffffffffffffffffffffffffffffffffffff163b119050919050565b600082825260208201905092915050565b7f3100000000000000000000000000000000000000000000000000000000000000600082015250565b60006105196001836104d2565b9150610524826104e3565b602082019050919050565b600060208201905081810360008301526105488161050c565b9050919050565b7f4e487b7100000000000000000000000000000000000000000000000000000000600052603260045260246000fd5b6000819050919050565b7f4e487b7100000000000000000000000000000000000000000000000000000000600052601160045260246000fd5b60006105c28261057e565b91506105cd8361057e565b9250817fffffffffffffffffffffffffffffffffffffffffffffffffffffffffffffffff048311821515161561060657610605610588565b5b828202905092915050565b7f4e487b7100000000000000000000000000000000000000000000000000000000600052601260045260246000fd5b600061064b8261057e565b91506106568361057e565b92508261066657610665610611565b5b828204905092915050565b600061067c8261057e565b91507fffffffffffffffffffffffffffffffffffffffffffffffffffffffffffffffff8214156106af576106ae610588565b5b600182019050919050565b600080fd5b600080fd5b600080fd5b600080fd5b600080fd5b60008083601f8401126106e9576106e86106c4565b5b8235905067ffffffffffffffff811115610706576107056106c9565b5b602083019150836060820283011115610722576107216106ce565b5b9250929050565b600080602083850312156107405761073f6106ba565b5b600083013567ffffffffffffffff81111561075e5761075d6106bf565b5b61076a858286016106d3565b92509250509250929050565b600081519050919050565b600082825260208201905092915050565b6000819050602082019050919050565b600073ffffffffffffffffffffffffffffffffffffffff82169050919050565b60006107cd826107a2565b9050919050565b6107dd816107c2565b82525050565b600063ffffffff82169050919050565b6107fc816107e3565b82525050565b60608201600082015161081860008501826107d4565b50602082015161082b60208501826107f3565b50604082015161083e60408501826107f3565b50505050565b60006108508383610802565b60608301905092915050565b6000602082019050919050565b600061087482610776565b61087e8185610781565b935061088983610792565b8060005b838110156108ba5781516108a18882610844565b97506108ac8361085c565b92505060018101905061088d565b5085935050505092915050565b600060208201905081810360008301526108e18184610869565b905092915050565b7f496e697469616c697a61626c653a20636f6e747261637420697320616c72656160008201527f647920696e697469616c697a6564000000000000000000000000000000000000602082015250565b6000610945602e836104d2565b9150610950826108e9565b604082019050919050565b6000602082019050818103600083015261097481610938565b9050919050565b610984816107c2565b811461098f57600080fd5b50565b6000813561099f8161097b565b80915050919050565b60008160001b9050919050565b600073ffffffffffffffffffffffffffffffffffffffff6109d5846109a8565b9350801983169250808416831791505092915050565b6000819050919050565b6000610a10610a0b610a06846107a2565b6109eb565b6107a2565b9050919050565b6000610a22826109f5565b9050919050565b6000610a3482610a17565b9050919050565b6000819050919050565b610a4e82610a29565b610a61610a5a82610a3b565b83546109b5565b8255505050565b610a71816107e3565b8114610a7c57600080fd5b50565b60008135610a8c81610a68565b80915050919050565b60008160a01b9050919050565b600077ffffffff0000000000000000000000000000000000000000610ac684610a95565b9350801983169250808416831791505092915050565b6000610af7610af2610aed846107e3565b6109eb565b6107e3565b9050919050565b6000819050919050565b610b1182610adc565b610b24610b1d82610afe565b8354610aa2565b8255505050565b60008160c01b9050919050565b60007bffffffff000000000000000000000000000000000000000000000000610b6084610b2b565b9350801983169250808416831791505092915050565b610b7f82610adc565b610b92610b8b82610afe565b8354610b38565b8255505050565b600081016000830180610bab81610992565b9050610bb78184610a45565b505050600081016020830180610bcc81610a7f565b9050610bd88184610b08565b505050600081016040830180610bed81610a7f565b9050610bf98184610b76565b5050505050565b610c0a8282610b99565b505056fea26469706673582212201fc9d45b3f1269ec1194bec1c373d292bd6f4dffbc18e55e55f9469146cd82d264736f6c634300080b0033",
  "immutableReferences": {
    "462": [
      {
        "length": 32,
        "start": 145
      },
      {
        "length": 32,
        "start": 415
      }
    ]
  },
  "source": "// SPDX-License-Identifier: MIT\r\npragma solidity ^0.8.4;\r\nimport \"@openzeppelin/contracts/proxy/Clones.sol\";\r\nimport \"./Stream.sol\";\r\ncontract Factory {\r\n  event ContractDeployed(address indexed owner, address indexed group, string title);\r\n  address public immutable implementation;\r\n  constructor() {\r\n    implementation = address(new Stream());\r\n  }\r\n  function genesis(string calldata title, Stream.Member[] calldata members) external returns (address) {\r\n    address payable clone = payable(Clones.clone(implementation));\r\n    Stream s = Stream(clone);\r\n    s.initialize(members);\r\n    emit ContractDeployed(msg.sender, clone, title);\r\n    return clone;\r\n  }\r\n}\r\n",
  "sourcePath": "C:\\Users\\1crea\\Desktop\\stream\\contracts\\Factory.sol",
  "compiler": {
    "name": "solc",
    "version": "0.8.11+commit.d7f03943.Emscripten.clang"
  },
  "schemaVersion": "3.4.4",
  "updatedAt": "2022-03-27T19:12:47.609Z",
  "networkType": "ethereum",
  "devdoc": {
    "kind": "dev",
    "methods": {},
    "version": 1
  },
  "userdoc": {
    "kind": "user",
    "methods": {},
    "version": 1
  }
}