{
  "contractName": "Test",
  "abi": [
    {
      "stateMutability": "payable",
      "type": "receive"
    },
    {
      "inputs": [
        {
          "internalType": "address",
          "name": "addr",
          "type": "address"
        }
      ],
      "name": "withdrawFail1",
      "outputs": [],
      "stateMutability": "payable",
      "type": "function"
    },
    {
      "inputs": [
        {
          "internalType": "address",
          "name": "addr",
          "type": "address"
        }
      ],
      "name": "withdrawFail2",
      "outputs": [],
      "stateMutability": "payable",
      "type": "function"
    },
    {
      "inputs": [
        {
          "internalType": "address",
          "name": "addr",
          "type": "address"
        }
      ],
      "name": "withdrawSuccess",
      "outputs": [],
      "stateMutability": "payable",
      "type": "function"
    }
  ],
  "bytecode": "0x608060405234801561001057600080fd5b50610362806100206000396000f3fe6080604052600436106100385760003560e01c80630f6acc6914610044578063c43b103614610060578063f6bc2f771461007c5761003f565b3661003f57005b600080fd5b61005e6004803603810190610059919061023c565b610098565b005b61007a6004803603810190610075919061023c565b610112565b005b6100966004803603810190610091919061023c565b61018f565b005b60008173ffffffffffffffffffffffffffffffffffffffff16476040516100be9061029a565b60006040518083038185875af1925050503d80600081146100fb576040519150601f19603f3d011682016040523d82523d6000602084013e610100565b606091505b505090508061010e57600080fd5b5050565b60008173ffffffffffffffffffffffffffffffffffffffff166108fc479081150290604051600060405180830381858888f1935050505090508061018b576040517f08c379a00000000000000000000000000000000000000000000000000000000081526004016101829061030c565b60405180910390fd5b5050565b8073ffffffffffffffffffffffffffffffffffffffff166108fc479081150290604051600060405180830381858888f193505050501580156101d5573d6000803e3d6000fd5b5050565b600080fd5b600073ffffffffffffffffffffffffffffffffffffffff82169050919050565b6000610209826101de565b9050919050565b610219816101fe565b811461022457600080fd5b50565b60008135905061023681610210565b92915050565b600060208284031215610252576102516101d9565b5b600061026084828501610227565b91505092915050565b600081905092915050565b50565b6000610284600083610269565b915061028f82610274565b600082019050919050565b60006102a582610277565b9150819050919050565b600082825260208201905092915050565b7f72616e206f7574206f6620676173000000000000000000000000000000000000600082015250565b60006102f6600e836102af565b9150610301826102c0565b602082019050919050565b60006020820190508181036000830152610325816102e9565b905091905056fea2646970667358221220afb5aebf2ef9ab1c7037ae9e836337abe33653e016e2cbb8a5b0e4931b166c1064736f6c634300080b0033",
  "immutableReferences": {},
  "source": "// SPDX-License-Identifier: MIT\r\npragma solidity ^0.8.4;\r\ncontract Test {\r\n  receive() external payable {}\r\n  function withdrawFail1(address addr) external payable {\r\n    bool success = payable(addr).send(address(this).balance);\r\n    require(success, \"ran out of gas\");\r\n  }\r\n  function withdrawFail2(address addr) external payable {\r\n    payable(addr).transfer(address(this).balance);\r\n  }\r\n  function withdrawSuccess(address addr) external payable {\r\n    (bool success,) = payable(address(addr)).call{value: address(this).balance }(\"\");\r\n    require(success);\r\n  }\r\n}\r\n",
  "sourcePath": "C:\\Users\\1crea\\Desktop\\stream\\contracts\\Test.sol",
  "compiler": {
    "name": "solc",
    "version": "0.8.11+commit.d7f03943.Emscripten.clang"
  },
  "schemaVersion": "3.4.4",
  "updatedAt": "2022-03-27T19:12:42.312Z",
  "devdoc": {
    "kind": "dev",
    "methods": {},
    "version": 1
  },
  "userdoc": {
    "kind": "user",
    "methods": {},
    "version": 1
  }
}